:020000040800F2
:1000000078140020450100081D1F00086D17000826
:100010003D1E00084D0E00089D3100080000000044
:10002000000000000000000000000000552500084E
:10003000E911000800000000B51F0008652800084D
:100040005F010008A51F00085F0100085F010008AC
:100050005F0100085F0100085F0100085F01000800
:100060005F0100085F0100085F0100085F010008F0
:100070005F0100085F0100085F0100085F010008E0
:100080005F0100085F010008B50800085F01000873
:100090005F0100085F0100085F0100085F010008C0
:1000A0005F0100085F0100085F0100085F010008B0
:1000B0005F0100085F0100085F0100085F010008A0
:1000C0005F0100085F0100085F0100085F01000890
:1000D0005F010008612E00085F0100085F01000851
:1000E000FB1200085F0100085F0100085F010008C3
:1000F0005F0100085F0100085F0100085F01000860
:100100005F0100085F0100085D2900085F01000829
:100110005F0100085F0100085F0100085F0100083F
:100120005F0100085F0100085F0100085F0100082F
:10013000DFF80CD000F072FB00480047D53A000809
:10014000781400200648804706480047FEE7FEE78F
:10015000FEE7FEE7FEE7FEE7FEE7FEE7FEE7FEE777
:10016000FD280008310100082DE9FE439946154697
:100170008846074601AC022942D3002D40D000201A
:100180000290A8F101004FF0FF36009022E000FB42
:10019000057201FB057011464A469047002805DCB0
:1001A00054F82600304444F8260013E060682A46DC
:1001B00000FB057154F8040C00FB057007E00B7898
:1001C00090F800C001F801CB00F8013B521E002A54
:1001D000F5D1764254F8040C61688842D7DC4B466E
:1001E0002A463846FFF7C0FF54F8040C4B46A8EBEC
:1001F0000001401C00FB05702A46491EFFF7B4FFB2
:10020000BDE8FE83D2B201E000F8012B491EFBD20B
:1002100070470022F6E710B513460A460446194611
:10022000FFF7F0FF204610BDF0B480EA0102D40FC2
:100230004200B2EB410F02D20246084611464A0084
:1002400042D0C30DDDB2C1F3C752AD1A202D35DA4D
:10025000C1F3160141F4000204B15242C5F1200677
:1002600002FA06F12A411044B3EBD05F23D0C4B1A7
:10027000012DA0EBC35009DCF0BC4FF0004202EAB4
:10028000C352DBB200F5000000F03DBA400000F1BF
:10029000807000EBC350A0F1807040EAD17049003B
:1002A00009E0490841EAC071A0EBC35000F5000025
:1002B000400800EBC350F0BC00F01CBA61420122C0
:1002C00002EB4101001BF6E7F0BC704781F00041F2
:1002D000AAE780F00040A7E780EA010210B502F02B
:1002E0000043400022D04A001FD0010E01EB1261F2
:1002F000C0F35600C2F3560240F4000042F400027C
:10030000A0FB022000047F39140400D0401C50EAF6
:10031000124001D44000491EC2B20C0604EBD010BA
:10032000401C4008802A02D003E0002010BD20F0CD
:100330000100002900DA0020184310BD30B480EA23
:10034000010202F0004530F0004221F0004013D0DD
:1003500090B1C30DD40DC2F31601C0F31600E41A18
:1003600041F4000140F400027D34914201D3641C49
:1003700000E04900002C02DA30BC002070474FF446
:1003800000000023914201D3891A034340084FEA39
:100390004101F7D151B1914202D14FF0004105E046
:1003A00002D24FF0010101E06FF0010103EBC450F4
:1003B000284430BC00F09EB92DE9FE4F81EA0304C9
:1003C00004F0004421F0004100944FF0000B23F0B2
:1003D000004350EA01045ED052EA03045BD0C3F349
:1003E0000A54C1F30A552C44A4F2F3340194A0FB3F
:1003F0000254C1F3130141F48011C3F3130343F416
:10040000801301FB024400FB034E840A970A44EA6E
:10041000815447EA8357A4FB076802958D0A05FBC0
:1004200007854FEA932C04FB0C542705029D4FEAE5
:10043000065847EA1637B5EB08056EEB070C870E32
:10044000920E47EA811742EA8312A7FB0201B6EB3C
:100450000B0164EB00042B0D43EA0C335E1844EBF4
:100460001C50DA465146E7FB0201C5F313044FEA7C
:100470000B3343EA14534FEA0432019C43EA060368
:10048000A4F10C040294009CCDE900B400F078F9CA
:1004900003B0BDE8F08F00200146F9E72DE9F04DEB
:1004A00081EA030404F0004B21F0004514464FF0AC
:1004B000000A23F0004150EA050220D054EA01026C
:1004C0001DD0C5F30A570246C5F31303C1F3130049
:1004D000C1F30A5640F4801543F48013A7EB0608D5
:1004E000101BD64608F2FD3873EB050002D308F165
:1004F000010801E092185B41B8F1000F03DA002017
:100500000146BDE8F08D00204FF480110646844678
:100510000EE0171B73EB050705D3121B63EB0503F6
:1005200006434CEA010C49084FEA300092185B413F
:1005300050EA0107EDD152EA030012D082EA04002A
:1005400083EA0501084305D0101BAB4106D2012206
:10055000002306E000224FF0004302E06FF00102AA
:1005600053101AEB06004CEB085110EB0A0041EB5C
:100570000B01BDE8F04D00F0F4B8C10F80EAE07067
:100580000844CA079623002100F0BDB89623002234
:10059000114600F0B8B80EB540F233410291002187
:1005A000CDE900110A460B4600F0EAF803B000BDA1
:1005B00000F0004220F00040C10DC0F3160040F4EE
:1005C00000007F2901DA00207047962903DCC1F181
:1005D0009601C84001E096398840002AF4D0404294
:1005E000704720F00040C10DC0F3160040F4000039
:1005F0007F2901DA00207047962903DCC1F19601BA
:10060000C8407047963988407047C1F30A5210B508
:10061000C1F3130140F2FF3341F480119A4201DA31
:10062000002010BD40F233439A42A2F2334203DC71
:10063000524200F003F810BD904010BD202A04DBA8
:10064000203A21FA02F00021704721FA02F3D0404B
:10065000C2F120029140084319467047014900F059
:1006600003B800004804002010B500683C22B0FB2D
:10067000F2F302FB1303B0FBF2F00B60B0FBF2F3FA
:1006800002FB1303B0FBF2F018224B60B0FBF2F355
:1006900002FB1303B0FBF2F0021D8B600723B2FBD9
:1006A000F3F403FB1422800040F2B55300F66C30E3
:1006B0008A61B0FBF3F2B0FBF3F403FB14004432A5
:1006C00080084A61C8613B2802D3920700D0401CD1
:1006D0000022074C13460A61E25C824203D8801A6A
:1006E0005B1C0B61F8E7401CC860084610BD0000A9
:1006F000984100080029A8BF7047401C490008BF66
:1007000020F00100704710B4B0FA80FC00FA0CF041
:1007100050EA010404BF10BC704749B1CCF1200479
:1007200021FA04F411FA0CF118BF01212143084306
:10073000A3EB0C01CB1D4FEA00614FEA102042BF32
:10074000002010BC704700EBC35010440029A4BF28
:1007500010BC7047401C490008BF20F0010010BCCD
:10076000704710B5141E73F1000408DA401C41F103
:10077000000192185B411A4301D120F0010010BD25
:100780002DE9F04D92469B4611B1B1FA81F202E09B
:10079000B0FA80F22032904600F052F804460F463C
:1007A00040EA0A0041EA0B0153465A46084313D077
:1007B000114653EA010019D0C8F140025046FFF734
:1007C0003DFF05460E4650465946424600F038F871
:1007D000084305D0012004E020463946BDE8F08DED
:1007E0000020054346EAE0762C4337430A98630528
:1007F000E40AA0EB08000022FD0A44EA47540A304C
:1008000002D500200146E9E7010510196941DDE93B
:10081000084500196941BDE8F04DA2E7064C074DB7
:1008200006E0E06840F0010394E8070098471034C0
:10083000AC42F6D3FFF780FC0842000828420008CB
:10084000202A04DB203A00FA02F100207047914090
:10085000C2F1200320FA03F319439040704770B5AA
:100860008C1810F8015B15F0070301D110F8013B5B
:100870002A1106D110F8012B03E010F8016B01F8E2
:10088000016B5B1EF9D12B0705D40023521E0DD43A
:1008900001F8013BFAE710F8013BCB1A921C03E088
:1008A00013F8015B01F8015B521EF9D5A142D8D3C0
:1008B000002070BD70B54FF40871104800F08DF83D
:1008C000012815D10D4800F084F80D49088008462C
:1008D0000088FFF75BFE05460A49FFF7FDFC04466A
:1008E0000949FFF72BFD09490860012008490870F4
:1008F0004FF40871014800F00DF870BD0028014068
:10090000C80100200000C84200F07F45CC01002053
:10091000CA01002000220A12D3430360704721B1AC
:10092000826842F00102826003E0826822F00102E4
:100930008260704721B1826842F48072826003E075
:10094000826822F4807282607047000010B504460D
:100950001248844208D10121401501F091FB002189
:10096000601501F08DFB17E00D48844208D101218C
:10097000001501F085FB0021201501F081FB0BE043
:100980000848844208D10121C80301F079FB002105
:100990004FF4004001F074FB10BD00000024014042
:1009A00000280140003C014021B1826842F48012DD
:1009B000826003E0826822F4801282607047014600
:1009C00000208A6802F004020AB1012000E0002041
:1009D00070470146C86C80B2704770B5024600206F
:1009E000002300240B125568CEB205EA06041568F0
:1009F0001D4015B10CB1012000E0002070BD014682
:100A000000208A6802F008020AB1012000E00020FC
:100A1000704710B50023CBB21AB144681C43446040
:100A200002E044689C43446010BD000030B50246BB
:100A30000020002350680F4C20400D790C6844EAD8
:100A400005242043506090680B4C2040D1E90254AB
:100A50002C434D7944EA450420439060D06A20F449
:100A600070000C7C641EE4B2234340EA0350D06261
:100A700030BD0000FFFEF0FFFDF7F1FF08B54FF4B9
:100A8000C06001F085FA12208DF8000000208DF87A
:100A9000010003208DF8020001208DF80300684654
:100AA00001F03EFA08BDF0B504460D4600200021D5
:100AB000092D11DDE068A5F10A0606EB46070726B9
:100AC00006FA07F18843A5F10A0606EB460603FA83
:100AD00006F10843E0600CE0206905EB45070726B6
:100AE00006FA07F1884305EB450603FA06F10843C9
:100AF0002061072A0FDA606B561E06EB86071F2659
:100B000006FA07F18843561E06EB860605FA06F13B
:100B10000843606322E00D2A0FDA206BD61F06EB34
:100B200086071F2606FA07F18843D61F06EB8606BE
:100B300005FA06F10843206310E0E06AA2F10D0611
:100B400006EB86071F2606FA07F18843A2F10D0679
:100B500006EB860605FA06F10843E062F0BD8168FF
:100B600041F008018160704721B1826842F4A0021F
:100B7000826003E0826822F4A0028260704781688C
:100B800041F004018160704770B51749088800F092
:100B900091F80546284601F00FFA14480088401CD9
:100BA0001249088008460088032805DA2846FFF71E
:100BB000EDFC0F49086070BD0C4800880A2802DD72
:100BC0000A200A490880094801880A4801F026F9E4
:100BD0000646FFF7DBFC04460749FFF7AFFB044975
:100BE000086000BFE7E70000980100209E01002098
:100BF00008040020F40300200000204110B500F09C
:100C000081FD00F003F800F02FFB10BD00B585B0AA
:100C10000121480201F024FA4FF4004001F0E4F908
:100C20002348FFF793FE0020009001208DF8040078
:100C30008DF805004FF460200290002003900320FF
:100C40008DF8100069461A48FFF7F0FE05230122CF
:100C50000A211748FFF727FF052302220B2114481A
:100C6000FFF721FF052303220C211148FFF71BFF8B
:100C700001210F48FFF75EFE01210D48FFF74FFEEF
:100C80000B48FFF76CFF00BF0948FFF7B8FE0028CC
:100C9000FAD10748FFF773FF00BF0548FFF78FFE43
:100CA0000028FAD101210248FFF75EFF05B000BD20
:100CB000002401402DE9F14F82B00298FFF76BFC50
:100CC000804600220A4BFFF777FB06460022094BBD
:100CD000FFF7E4FB04460022074BFFF76DFB82465B
:100CE000FFF793FC80B201900198BDE8FE8F0000F1
:100CF00000806B4000FEAF400000244010B577211B
:100D0000012002F08DFA3D21022002F089FA3D21F6
:100D1000032002F085FA4621042002F081FA10BD7A
:100D200010B50446204602F03BFA0A48017801203B
:100D300002F076FA08480178022002F071FA0748BA
:100D40000178032002F06CFA05480178042002F0D3
:100D500067FA10BD34000020350000203600002066
:100D60003700002010B5044801F0D0FF00F0EAFE83
:100D700001F066F810BD0000A52C000810B5024671
:100D80000023002003E032F810402344401C884236
:100D9000F9D3B3FBF1F080B210BD10B5012001F022
:100DA0007FF9002001F07CF910BD000008B5014674
:100DB000002000900348009000980844009000989C
:100DC000008808BD006C004008B500220092044A6B
:100DD0000092009A02440092009A116008BD00003F
:100DE000006C004010B57F21012002F019FA772134
:100DF000022002F015FA3E21032002F011FA3D21F3
:100E0000042002F00DFA10BD10B50446204602F091
:100E1000C7F90A480178012002F002FA084801786F
:100E2000022002F0FDF907480178032002F0F8F9EA
:100E300005480178042002F0F3F910BD34000020C9
:100E400035000020360000203700002000BFFEE7FC
:100E500030B502460B46FF20002113E0545C604091
:100E600008240BE000F0800525B1312585EA400516
:100E7000E8B201E04506280E651EECB2002CF1DC5C
:100E80004C1CE1B29942E9D330BD70B5024613461D
:100E90000C4600201D882688B54201DD401E06E074
:100EA0001D882688B54201DA012000E0002070BDCF
:100EB00008B50121042001F0D3F80420ADF80000AA
:100EC00010208DF8030003208DF8020069460248C7
:100ED00000F0CCFA08BD00000008014010B5FFF793
:100EE000E7FF0421014800F057FB10BD0008014056
:100EF00008B50420ADF8000048208DF803006946CD
:100F0000014800F0B3FA08BD0008014008B504200C
:100F1000ADF8000010208DF8030003208DF80200CA
:100F20006946024800F0A2FA08BD0000000801402E
:100F300070B500250026002428E000BF04211548D4
:100F400000F01FFB0028F9D03C2000F06FF90421CD
:100F5000104800F016FB012811D100E0761C042196
:100F60000C4800F00EFB012802D1B6F5167FF5D330
:100F7000C4F1070101208840C0B2054304E0C4F178
:100F80000701012088408543601CC4B2082CD4DBD3
:100F9000284670BD000801401CB5FFF7B7FF0421CB
:100FA000274800F0F7FA122000F034F90421244811
:100FB00000F0F2FA1E2000F039F9FFF799FF042142
:100FC0001F4800F0DEFA002839D100BF04211C4878
:100FD00000F0D7FA0028F9D000BF0421184800F02B
:100FE000D0FA0128F9D0002405E0FFF7A1FF0DF8A1
:100FF0000400601CC4B2052CF7DBFFF787FF042157
:101000000F4800F0C9FA9DF800009DF8011008444F
:101010009DF8021008449DF8031008449DF8041040
:1010200088420CD19DF80000064908709DF8010027
:1010300048709DF8020088709DF80300C8701CBDC0
:10104000000801409401002021B1026842F0010231
:10105000026004E002684FF6FE731A4002607047B7
:1010600001684FF6FE72114001600021016041608D
:101070008160C1604B49884208D14A4908394968B2
:1010800041F00F01474A083A51608AE0454914315E
:10109000884208D143490839496841F0F001414A82
:1010A000083A51607DE03F492831884208D13D49E6
:1010B0000839496841F470613A4A083A516070E071
:1010C00038493C31884208D136490839496841F4E9
:1010D0007041344A083A516063E0324950318842E5
:1010E00008D130490839496841F470212D4A083A3D
:1010F000516056E02B496431884208D129490839AA
:10110000496841F47001274A083A516049E025498D
:101110007831884208D123490839496841F0706123
:10112000204A083A51603CE01F49884206D1011F1D
:10113000096841F00F01021F116032E01A491431B1
:10114000884208D11849091F096841F0F001164A80
:10115000121F116025E014492831884208D1124934
:10116000091F096841F470610F4A121F116018E0ED
:101170000D493C31884208D10B49091F096841F4E7
:101180007041094A121F11600BE007495031884233
:1011900007D10549091F096841F47021024A121F4D
:1011A00011607047080002400804024010B5002298
:1011B000026847F6F0739A430C6A8B6823430C6904
:1011C00023434C6923438C692343CC6923434C6AF2
:1011D00023438C6A23431A430260CB6843600B6845
:1011E00083604B68C36010BD70470000074800680B
:1011F00040F08070054908600020054948600846B5
:10120000006840F00100086070470000FCED00E05D
:10121000001000E030B50446002504E04FF47A7079
:1012200000F004F86D1CA542F8D330BD10B501469E
:101230000C4C626801EBC104E300D018904205DD5C
:1012400000BF084C64688442FBD309E000BF054C32
:1012500064688442FBD200BF024C64688442FBD3C2
:1012600010BD0000001000E000B58BB00121084661
:1012700000F0C6FE1148FFF7F3FE11480090114838
:101280000190002002900320039000200490802011
:1012900005904000069080000790202008904FF4B1
:1012A0004050099000200A9069460448FFF77EFFED
:1012B00001210248FFF7C8FE0BB000BD0800024044
:1012C0004C2401409801002010B500F00DFD00F005
:1012D0005DFC01F04FFD01F0DFF801F03CF9FFF794
:1012E00085FF00F079F800BF00F01EFC0028FBD05D
:1012F00000F056FD01F086FA10BD10B54FF4006005
:1013000000F00CF818B14FF4006000F001F810BDC7
:1013100001490860704700001404014001460020A4
:101320000022074B1B6803EA0102054B14331B68BC
:101330000B4013B10AB1012000E00020704700000B
:1013400000040140002123498279002A3AD00A464C
:10135000126803689A430B461A600A1D12680368F4
:101360009A430B1D1A60027911440A6803681A43F4
:101370000A60184A0832126803689A43154B08330A
:101380001A601A1D126803689A43124B0C331A60D4
:101390004279102A0ED11A1F126803681A430D4BA6
:1013A00008331A601A1D126803681A43094B0C337C
:1013B0001A600DE00749427911440A6803681A432C
:1013C0000A6005E0027911440A6803689A430A60DA
:1013D000704700000004014010B500F011F810BD86
:1013E00000B5B3B0C82101A8FEF713FFC82201A9B8
:1013F000002001F077FF08B933B000BD00BFFBE764
:1014000008B50121082000F02BFEC020ADF8000037
:1014100014208DF8030001208DF80200694602486F
:1014200000F024F808BD0000000C014030B5002297
:101430008B071C0F0F2303FA04F20B4B8C1053F88D
:1014400024309343084C8D1044F8253023468C10EB
:1014500053F824308C07240F00FA04F42343024C81
:101460008D1044F8253030BD080001402DE9F041D1
:10147000024600250026002000230024002791F8C2
:1014800003C00CF00F0591F803C00CF0100CBCF178
:10149000000F03D091F802C04CEA050591F800C096
:1014A000BCF1000F31D0146800202BE04FF0010C8C
:1014B0000CFA00F3B1F800C00CEA03069E4220D1FA
:1014C00083004FF00F0C0CFA03F7BC4305FA03FC42
:1014D0004CEA040491F803C0BCF1280F06D14FF088
:1014E000010C0CFA00FCC2F814C00AE091F803C029
:1014F000BCF1480F05D14FF0010C0CFA00FCC2F80A
:1015000010C0401C0828D1D31460B1F800C0BCF151
:10151000FF0F34DD546800202EE000F1080C4FF07E
:10152000010808FA0CF3B1F800C00CEA03069E4269
:1015300021D183004FF00F0C0CFA03F7BC4305FADE
:1015400003FC4CEA040491F803C0BCF1280F05D158
:1015500000F1080C08FA0CF8C2F8148091F803C0E6
:10156000BCF1480F07D100F1080C4FF0010808FA50
:101570000CF8C2F81080401C0828CED35460BDE897
:10158000F0810246002093680B400BB1012000E07F
:101590000020704741617047016170470AB10161E5
:1015A00000E041617047000004480088032802DA27
:1015B0000020034908600248006870479E0100202F
:1015C00008040020014800787047000094010020C2
:1015D00070B50025002407E0204600F001FB054619
:1015E00005B103E0601CC4B2032CF5D300BF28464C
:1015F00070BD0000014800887047000020020020F4
:1016000001488078704700001402002001484068BB
:101610007047000014020020014800687047000075
:10162000CC01002038B5044600F004FE00F5E1408E
:1016300000906846FFF712F80546A88A00F26C7021
:101640002080287C401CA070287BE070287A2071C4
:101650002879607138BD10B5044600F011F820807B
:10166000FFF7B0FFA070FFF79FFF6060FFF7C2FFBA
:10167000208110BD01490868496870477001002049
:101680002DE9F0471D48C078C409ECB11B49C97861
:1016900001F07F00FEF771FF81461949FEF74EFE0B
:1016A000074616498878FEF771FF80463946FEF7EF
:1016B000BBFD80F0004612493046FEF70DFE0546A0
:1016C000FEF776FFBDE8F0870C49C878FEF75EFFAD
:1016D00081460B49FEF732FE074608498878FEF737
:1016E00055FF80463946FEF79FFD06460449FEF742
:1016F000F3FD0546FEF75CFFE4E7000094010020DF
:101700000000204108B50121102000F0A9FC0720AD
:10171000ADF8000000208DF8030069460148FFF78E
:10172000A5FE08BD0010014008B50121042000F00D
:1017300097FC4FF40070ADF8000018208DF80300FE
:1017400003208DF8020069460748FFF78FFE4FF42B
:101750008060ADF8000048208DF80300694602481B
:10176000FFF784FE08BD00000008014000BFFEE74F
:1017700010B57148007808B900F0EEFAFFF728FFBD
:101780000446812C2BD006DC012C09D0022C2ED053
:10179000032C73D17CE0822C77D0832CF9D199E093
:1017A0006548007820B1012808D0022812D10BE04A
:1017B000012061490870FFF7A1FA0EE002205E499E
:1017C0000870FFF70FFB08E000205B49087000F08D
:1017D000C3FA02E000F0C0FA00BF00BFA8E0C822D0
:1017E0005649002000F085FD00B910BDA0E0524828
:1017F0000078012802D0022844D115E05048007832
:1018000001280FD14F480078401C4E490870084607
:101810000078202801DD012008704A480078FFF791
:101820007FFA00E0E1E72EE045480078012827D163
:1018300045480068401C4449086008460068012883
:1018400004D0022807D0032812D109E04FF4166013
:101850003E4908800CE04FF496503C49088007E070
:101860004FF416503949088000203749086000BFFE
:1018700000BF36480088FFF7C7FA02E057E004E0EF
:10188000B3E700E000BF00BF52E0FFF7A9FD4FE063
:1018900029480078012802D0022818D10BE0FFF770
:1018A000AFFE2849087008460078FFF739FA012092
:1018B000234908700CE0FFF7A9FE24490880084678
:1018C0000088FFF7A1FA01201D49087000E000BF61
:1018D00000BF2DE018480078012802D0022823D14B
:1018E0000DE01848007800F047FE38B1FFF77AFAAB
:1018F00002201149087000201149087015E01348B2
:10190000008800F063FE70B100BF1148006800F469
:10191000E06010490843001D0D490860BFF34F8F78
:1019200000BF00BFFEE700E000BF00BF00E000BF57
:1019300000BF00BF59E70000410000202A0200203C
:1019400040000020380000203C0000204200002021
:101950000CED00E00000FA0570B50024802111486C
:10196000FFF71AFE002518E040210E48FFF714FE8D
:101970000420FFF75BFC6006040E80210948FFF796
:1019800000FE08B1601CC4B240210648FFF702FE09
:101990000420FFF74BFC681CC5B2082DE4DB204691
:1019A00070BD0000000C014010B580210C48FFF70D
:1019B000F1FD0420FFF73AFC40210948FFF7ECFD58
:1019C0000420FFF733FC40210548FFF7E3FD042026
:1019D000FFF72CFC80210248FFF7DEFD10BD000060
:1019E000000C014070B50446002520E004F08000A2
:1019F00020B180210F48FFF7CFFD03E080210D4883
:101A0000FFF7C8FD6006040E0420FFF70FFC40211D
:101A10000848FFF7C1FD0420FFF708FC40210548F6
:101A2000FFF7B8FD0420FFF701FC681CC5B2082DC4
:101A3000DCDB70BD000C014010B580210A48FFF7C7
:101A4000ABFD0420FFF7F2FB40210748FFF7A4FDA0
:101A50000420FFF7EBFB40210348FFF79BFD042028
:101A6000FFF7E4FB10BD0000000C014010B5802121
:101A70000C48FFF791FD40210A48FFF78DFD042037
:101A8000FFF7D4FB80210748FFF784FD0420FFF710
:101A9000CDFB40210348FFF77DFD0420FFF7C6FB87
:101AA00010BD0000000C014010B580210848FFF770
:101AB00071FD0420FFF7BAFB40210548FFF76CFDDC
:101AC0000420FFF7B3FB80210148FFF765FD10BD3F
:101AD000000C014010B5002480211248FFF75CFD86
:101AE0000420FFF7A3FB40210E48FFF755FD04201B
:101AF000FFF79CFB07E0601CC4B2FA2C03DDFFF784
:101B0000D3FF002010BD80210648FFF73AFD0028D2
:101B1000F1D140210348FFF73DFD0420FFF786FB8C
:101B20000120EFE7000C014010B5FFF79FFFA02058
:101B3000FFF758FFFFF7CEFF0446FFF7B5FF20463B
:101B400010BD00000EB5684600F048FC90B1BDF82D
:101B5000000045F65A2188420CD109489DE80E0044
:101B60000EC00C38007A074908800549887801F0D2
:101B700087FF0EBD0248044B0ECB0EC000BFF8E736
:101B80001402002020020020703F000838B5002415
:101B900020E004EB4401114A52F82100012100F039
:101BA0005FFA04EB44000D4901EB80000089ADF8B9
:101BB000000004208DF8030002208DF8020004EBE1
:101BC0004401064A02EB810148686946FFF74EFC72
:101BD000601CC4B2032CDCD338BD0000A40100207B
:101BE0002DE9F041044604EB44023D4B03EB820235
:101BF000118904EB440203EB82025068FFF7C1FC39
:101C00000746384800EB0410007830B1012812D0A4
:101C100002282ED0032859D14DE05FB90120314967
:101C200001EB04110870FFF725FD2E4A02EB0412A8
:101C3000C2E9020150E0B7B9FFF71CFD05460E46A8
:101C4000284800EB0410D0E90232EB1A66EB0201DF
:101C50000020D3F10A0288410AD20220214901EB77
:101C60000411087004E000201E4901EB0411087003
:101C700032E047B100201B4901EB04110870601CE1
:101C8000C0B2BDE8F081FFF7F5FC05460E461548E9
:101C900000EB0410D0E9023CEA1A66EB0C014FF4A9
:101CA0007A7300209A1A884104D203200D4901EB6F
:101CB0000411087010E047B100200A4901EB04113B
:101CC000087004F18100C0B2DBE705E0002005499F
:101CD00001EB0411087000BF00BF0020D1E7000035
:101CE000A40100201804002038B500242FE004EBE4
:101CF0004401184A52F82100012100F0B1F904EB27
:101D00004400144901EB8000008980B2ADF8000066
:101D100010208DF8030001208DF8020004EB44012F
:101D20000C4A02EB810148686946FFF79FFB04EB10
:101D30004402084B03EB8202128991B204EB440285
:101D400003EB82025068FFF727FC601CC4B2022C30
:101D5000CDD338BD7C01002010B5FFF751FC0446FF
:101D600001F01EFA0C480178012001F059FA0B48E5
:101D70000178022001F054FAFFF73CFC044601F020
:101D80000FFA05480178032001F04AFA0348017868
:101D9000042001F045FA10BD360000203700002075
:101DA00010B500F025F880211048FFF7F5FB4FF43F
:101DB00080710E48FFF7F0FB4FF400710B48FFF7FE
:101DC000EBFB01210C2001F02BFA00210F2001F088
:101DD00027FA0021092001F023FA03210B2001F04A
:101DE0001FFA03210A2001F01BFA10BD0010014068
:101DF00008B50121102000F033F94FF46070ADF800
:101E0000000010208DF8030001208DF802006946C3
:101E10000148FFF72BFB08BD0010014070B50446D8
:101E20000D46054B022229462046FEF79DF9A91EC4
:101E3000A01CFEF7A3FF70BD8B0E000800BFFEE7DD
:101E40001FB5074B0FCB8DE80F00FFF7D9FB8DF8BF
:101E50000000FFF7DBFB0190684600F049F81FBD6A
:101E6000883F00081FB504466846FFF7F4FB9DF85D
:101E7000020000EB8000400020801FBD1FB504461B
:101E80006846FFF7E8FBBDF8080020801FBD000092
:101E90007FB504466846FFF7DEFB04490198FEF76C
:101EA0001BFA0546FEF79DFB20807FBD0000204108
:101EB0001FB504466846FFF7CEFBBDF80000208042
:101EC0001FBD10B504461CB9002000F099FF02E0C8
:101ED000002000F0ADFF10BD10B504461CB9012074
:101EE00000F08EFF02E0012000F0A2FF10BD000014
:101EF00038B504460020009021780246636801F05E
:101F0000A5FB01F0F7FA0248D4E9021206C038BD79
:101F10006801002010B501F009FC10BD70470000F9
:101F200070B5002100230F22C47804B3154C246837
:101F300004F4E064C4F5E064210AC1F10403CA407A
:101F4000447804FA03F184781440214309010E4CCB
:101F50000678A155047804F01F050124AC400578EB
:101F60006D11AD0005F1E025C5F8004109E00478E8
:101F700004F01F050124AC40044D0678761145F8A5
:101F8000264070BD0CED00E000E400E080E100E0E0
:101F900002490143024A1160704700000000FA053F
:101FA0000CED00E070470000014908627047000036
:101FB00000000E427047000009490A4A128821F8C1
:101FC000120008490988491C064A118011460988EF
:101FD0000A2291FBF2F302FB1311024A11807047AF
:101FE000F4030020A001002001460020034A5068AD
:101FF00020F4404008435060704700000010024049
:1020000029B1064A52690243044B5A6104E0034A6B
:1020100052698243014B5A61704700000010024030
:1020200029B1064AD2690243044BDA6104E0034A4B
:10203000D2698243014BDA61704700000010024010
:1020400029B1064A12690243044B1A6104E0034AAB
:1020500012698243014B1A61704700000010024070
:1020600029B1064A92690243044B9A6104E0034A8B
:1020700092698243014B9A61704700000010024050
:1020800029B1064AD2680243044BDA6004E0034AED
:10209000D2688243014BDA607047000000100240B2
:1020A00001490860704700004004424230B50021F9
:1020B0000022002400232D4D6D6805F00C0121B194
:1020C000042905D0082923D105E0294D056022E027
:1020D000274D05601FE0254D6D6805F47012234DF6
:1020E0006D6805F48034022505EB92421CB9214D40
:1020F000554305600BE01D4D6D6805F400351DB1BD
:102100001C4D5543056002E0194D5543056002E042
:10211000174D056000BF00BF144D6D6805F0F0015C
:102120000909154D6B5C0568DD4045600F4D6D6814
:1021300005F4E061090A104D6B5C4568DD4085607F
:102140000A4D6D6805F46051C90A0B4D6B5C45681A
:10215000DD40C560054D6D6805F44041890B074DB4
:102160006B5CC568B5FBF3F5056130BD001002403E
:1021700000127A0000093D00E8010020F80100206B
:1021800010B501460022002300204A11012A02D185
:10219000094C236806E0022A02D1074C236A01E0B9
:1021A000054C636A01F01F02012494401C400CB1ED
:1021B000012000E0002010BD0010024000210B4A69
:1021C00011700A4A203A82F82010012802D004280F
:1021D00008D103E00121054A117004E00521034AFA
:1021E000117000E000BF00BF7047000020100240E7
:1021F00001490860704700003C0442420249096AF4
:102200000143014A116270470010024003480088F0
:1022100040F0100001490880704700000428004089
:10222000034800884FF6EF71084001490880704765
:1022300004280040002103480188001F008841EA6B
:10224000004070471C28004000B50246FFF7DEFF43
:10225000100C03490880091D0A80FFF7E1FF00BD4B
:102260001828004000B50246FFF7D0FFC2F3034034
:1022700003490880091D0A80FFF7D2FF00BD000056
:102280000828004000BF0348008800F02000002814
:10229000F9D0704704280040074800884FF6F771CE
:1022A00008400549088000BF0348008800F0080086
:1022B0000028F9D070470000042800402DE9F041C3
:1022C00007460C4615462A462146384600F011F8C6
:1022D00010B90020BDE8F081691E2046FEF7B8FD68
:1022E0000646681E205CB04201D00020F2E70120C3
:1022F000F0E770B506460C4615467019B0F5807FBC
:1023000000DC0CB9002070BDFFF7B0FBA020FFF788
:1023100069FBFFF7DFFB00B926E03046FFF762FB01
:10232000FFF7D8FB00B91FE0FFF7A0FBA120FFF7E4
:1023300059FBFFF7CFFB00B916E0681E85B205E038
:10234000FFF70AFB04F8010BFFF72EFB281EA5F18F
:1023500001018DB2F4D1FFF7FFFA2070FFF76CFB9B
:10236000FFF7A2FB0120CEE7FFF79EFB0020CAE7A4
:102370002DE9F04780468946174617B90220BDE887
:10238000F087002423E0002500261AE0124800EB25
:102390000610408808EB0401884200D010E00E4887
:1023A00000EB0615287800F0010008B90220E6E7E6
:1023B000A86820B1022202FB0470A968884700BF08
:1023C000761C062EE2D30DB90120D8E7641C4C45DB
:1023D000D9D30020D3E700004400002070B50446A4
:1023E0000C252A462146C820FFF768FF08B10120C6
:1023F00070BD2A462146E420FFF760FF08B10120A6
:10240000F6E70020F4E7000070B51E4800780028C9
:1024100037D000201B4908701B480088401C1A490F
:102420000880081DFFF7FEF8FFF7F6F80546174984
:10243000FDF752FF0446FEF7D4F8134948800A20FE
:1024400013490870002411E04021124800F02AFDD1
:102450000D48015D0F4800F064FE00BF40210D48AB
:1024600000F092FD0028F9D0601CC4B20848007842
:102470008442E9DB0449087800F03AF9024800F0A8
:1024800057F970BDCA010020200200200000204141
:10249000300000200038014010B500240420FEF771
:1024A00085FC45F65B21884244D001214FF0C050A5
:1024B000FFF7B6FD0120FFF777FDFEF76EFC012068
:1024C000FFF77CFE04E0601CC4B20A20FEF7A2FE07
:1024D0004120FFF755FE0028F5D0FA2C00DB10BD97
:1024E0004FF48070FFF78AFE0120FFF781FEFFF7AF
:1024F000C9FEFFF7D1FEFFF7C5FEFFF787FE47F6DF
:10250000FF70FFF7AFFEFFF7BDFE01214FF0C05097
:10251000FFF786FD0120FFF747FD0D48FFF794FE0A
:10252000FFF7B0FEFFF77CFE45F65B210420FEF7C7
:102530004BFCD4E701214FF0C050FFF771FD0120A3
:10254000FFF732FDFFF7A8FEFFF79CFE00BFC6E7CE
:102550006800F065704710B5FEF7C0FCFEF74EFB53
:1025600010BD10B500F0D8FBFEF70EFB10BD10B586
:10257000FFF7F7FF10BD00003EB504461248807813
:10258000A04201D101203EBD0F4AD2E9001092685D
:10259000CDE9010200918DF80240204601F070FA69
:1025A00008B10020EFE7684600F02EFF28B9064981
:1025B000887801F065FA0020E5E703489DE80E0001
:1025C0000EC00120DFE70000140200203EB50446E3
:1025D0000C484068A04201D101203EBD094AD2E921
:1025E00000109268CDE9010200910194684600F064
:1025F0000BFF08B90020F0E702489DE80E000EC06E
:102600000120EAE71402002010B500F001F810BD27
:102610000CB50020019000903348006840F48030F1
:102620003149086000BF3048006800F40030009075
:102630000198401C0190009818B90198B0F5A06F5E
:10264000F1D12948006800F4003010B10120009059
:1026500001E0002000900098012843D12348006841
:1026600040F01000214908600846006820F003008F
:1026700008600846006840F0020008601A48406898
:10268000194948600846406848600846406840F478
:10269000806048600846406820F47C104860084626
:1026A000406840F4E81048600846006840F08070D8
:1026B000086000BF0C48006800F000700028F9D0E6
:1026C0000948406820F00300074948600846406810
:1026D00040F00200486000BF0348406800F00C0072
:1026E0000828F9D10CBD0000001002400020024073
:1026F0003EB504460D48007AA04201D101203EBDFE
:102700000A4AD2E900109268CDE9010200918DF8E1
:102710000840684600F078FE08B90020EFE703485B
:102720009DE80E000EC00120E9E700001402002021
:1027300070B504462088142190FBF1F201FB1200D1
:10274000C5B2691E01EB8101002202EB4101C8B252
:102750000A22214600F0C6FD08B9002070BD012004
:10276000FCE710B5FFF750FE002000F0D9FA10BDCD
:1027700000B585B001218802FFF772FC4FF40040DC
:10278000FFF732FC1E48FEF7E1F8002000908DF8BC
:1027900004008DF805004FF44020029000200390C3
:1027A00001208DF8100069461548FEF73FF9052312
:1027B00001220D211248FEF776F901224FF408712B
:1027C0000F48FEF726F901210D48FEF7A8F80C483E
:1027D000FEF7C5F900BF0A48FEF711F90028FAD143
:1027E0000748FEF7CCF900BF0548FEF7E8F80028D7
:1027F000FAD101210248FEF7D7F805B000BD00006C
:102800000028014010B500F005F8FFF7B1FFFEF712
:1028100035F910BD08B501211020FFF721FC082073
:10282000ADF8000000208DF8030069460148FEF76E
:102830001DFE08BD0010014008B501210420FFF76E
:102840000FFC4FF48070ADF8000010208DF80300ED
:1028500001208DF8020069460148FEF707FE08BD19
:102860000008014010B5094802684068521C40F158
:10287000000006490A6048600548006800B910BDBC
:1028800003480068804700BFF9E70000700100209E
:102890007801002030B5164800684FF47A72B0FB1A
:1028A000F2F1B1F1807F01D301201DE021F07F40E2
:1028B000401E4FF0E022506150170F22002807DA27
:1028C00013071D0E0B4B00F00F04241F1D5503E0D2
:1028D00013071C0E084B1C5400BF00204FF0E022D1
:1028E000906107201061002008B100BFFEE730BDF5
:1028F000FC01002018ED00E000E400E010B51348F2
:10290000006840F00100114908600846406810491D
:1029100008400E494860084600680E4908400B49C7
:1029200008600846006820F4802008600846406877
:1029300020F4FE0048604FF41F008860FFF764FE3B
:102940004FF000600449086010BD00000010024014
:102950000000FFF8FFFFF6FE08ED00E010B50121D2
:10296000074800F015F948B10121054800F00DF8BD
:102970000021034800F026F901F0C8F810BD00005E
:10298000000C0040CA4302827047CA43028270476B
:1029900021B1028842F00102028004E002884FF671
:1029A000FE731A400280704710B50446684884429E
:1029B00008D10121C014FFF763FB0021E014FFF7E9
:1029C0005FFBC4E0B4F1804F08D101210846FFF756
:1029D00037FB00210120FFF733FBB8E05D4884425C
:1029E00008D101210220FFF72BFB00210220FFF775
:1029F00027FBACE05848844208D101210420FFF7AE
:102A00001FFB00210420FFF71BFBA0E0534884427A
:102A100008D101210820FFF713FB00210820FFF750
:102A20000FFB94E04E48844208D101211020FFF7AB
:102A300007FB00211020FFF703FB88E04948844290
:102A400008D101212020FFF7FBFA00212020FFF709
:102A5000F7FA7CE04448844208D101214014FFF792
:102A60000FFB00216014FFF70BFB70E03F4884422E
:102A700009D10121C804FFF703FB00214FF4002016
:102A8000FFF7FEFA63E03A48844209D101210805C4
:102A9000FFF7F6FA00214FF48010FFF7F1FA56E045
:102AA0003448844209D101214805FFF7E9FA0021A1
:102AB0004FF40010FFF7E4FA49E02F48844208D1B0
:102AC00001214020FFF7BCFA00214020FFF7B8FAAF
:102AD0003DE02A48844208D101218020FFF7B0FA66
:102AE00000218020FFF7ACFA31E02548844208D16C
:102AF00001218015FFF7A4FA0021A015FFF7A0FA25
:102B000025E02048844209D101210804FFF7B8FAE2
:102B100000214FF48030FFF7B3FA18E01A488442DE
:102B200009D101214804FFF7ABFA00214FF400302E
:102B3000FFF7A6FA0BE01548844208D1012188046A
:102B4000FFF79EFA00214FF48020FFF799FA10BD9D
:102B5000002C01400004004000080040000C004030
:102B6000001000400014004000340140004C0140BF
:102B7000005001400054014000180040001C00407B
:102B80000020004000400140004401400048014056
:102B900030B50246002000230024158A05EA01030F
:102BA000958905EA010413B10CB1012000E0002071
:102BB00030BD1AB183890B43838102E083898B4343
:102BC0008381704781847047002202881D4B9842A0
:102BD0000ED01D4B98420BD0B0F1804F08D01B4B4C
:102BE000984205D01A4B984202D01A4B984204D111
:102BF0004FF68F731A404B881A43174B984207D0F1
:102C0000164B984204D04FF6FF431A40CB881A4324
:102C100002808B8883850B8803850A4B98420BD0F2
:102C2000094B984208D00E4B984205D00D4B984264
:102C300002D00D4B984201D10B7A03860123838287
:102C400070470000002C01400034014000040040A7
:102C500000080040000C004000100040001400403C
:102C600000400140004401400048014010B50024EC
:102C700013E004EB44000A4911F8200058B1002089
:102C800004EB4401064A02F8210004EB440102EB84
:102C9000810188688047601CC4B2042CE9D310BD50
:102CA0000000002000202BE000EB4001164A02EB60
:102CB0008101498811B300EB400102EB8101498891
:102CC000491E00EB4002104B03EB8202518000EBE7
:102CD00040011A4602EB8101498879B9012100EBD4
:102CE000400203F8221000EB40011A4602EB81017A
:102CF000898800EB400203EB82025180411CC8B27C
:102D00000428D1D37047000000000020014908606A
:102D1000704700007801002010B5FEF73DF910BDA6
:102D200070B50446022C00D370BD04EB4402104B76
:102D300003EB8202128991B204EB440203EB82029C
:102D40005068FEF71EFC0546C5F10100C5B204EB54
:102D50004402074B03EB8202128991B204EB440256
:102D600003EB820250682A46FEF718FC00BFDBE73F
:102D70007C01002010B500F02FF800F001F810BD24
:102D80000EB501210846FFF76BF90B210120FEF774
:102D90004DFB4FF40060019000208DF808000820E2
:102DA0008DF8090001208DF80A0001A8FEF7CAFA83
:102DB0004FF4C060FFF7ECF828208DF800000020E9
:102DC0008DF8010003208DF8020001208DF803002A
:102DD0006846FFF7A5F80EBD08B501210820FFF7EA
:102DE0003FF94FF40060ADF8000004208DF80300B7
:102DF00069460248FEF73AFB08BD0000000C01409E
:102E000010B50446022C00D310BD04EB4402074B5E
:102E100003EB8202128991B204EB440203EB8202BB
:102E20005068FEF7B9FB00BFEEE700007C01002010
:102E300010B50446022C00D310BD04EB4402074B2E
:102E400003EB8202128991B204EB440203EB82028B
:102E50005068FEF79FFB00BFEEE700007C010020FA
:102E600010B50F49086840F2255100F09AF838B1C2
:102E700000F054FE0A49086840F2255100F01BF8A2
:102E80000749086840F2266100F08BF838B100F07D
:102E90004DFE0349086840F2266100F00CF810BDB1
:102EA000D401002001F40072B2F5007F00D100BF10
:102EB000CA430280704710B50022002340F66A140E
:102EC000A14200D100BF0A1201249440A3B2DC4306
:102ED000048010BD21B1828942F40052828104E055
:102EE00082894DF6FF731A408281704710B50446FF
:102EF0002048844209D101218803FFF7C1F800214D
:102F00004FF48040FFF7BCF832E01B48844209D1FF
:102F100001214804FFF794F800214FF40030FFF737
:102F20008FF825E01548844209D101218804FFF774
:102F300087F800214FF48020FFF782F818E010484E
:102F4000844209D10121C804FFF77AF800214FF427
:102F50000020FFF775F80BE00A48844208D10121F0
:102F60000805FFF76DF800214FF48010FFF768F8AF
:102F700010BD0000003801400044004000480040FF
:102F8000004C00400050004002460020B1F5007F98
:102F900000D100BF13880B400BB1012000E00020DE
:102FA000704770B50246002400230025002040F63B
:102FB0006A16B14200D100BFC1F3421501F01F03F0
:102FC000012606FA03F3012D02D19689334006E06B
:102FD000022D02D1168A334001E0968A33400C124A
:102FE000012606FA04F41688344013B10CB101200E
:102FF00000E0002070BDF0B5034600240026002547
:10300000002040F66A17B94200D100BF1846C1F34C
:10301000421401F01F06012707FA06F5012C01D121
:103020000C3004E0022C01D1103000E014301AB151
:1030300007682F43076002E00768AF430760F0BDF1
:103040002DE9F04786B005460E460024A24600BF93
:10305000A1460027B08900B100BF2F462C8A4CF64C
:10306000FF700440F08804432C82AC894EF6F310C4
:103070000440B08831890843718908430443AC8116
:10308000AC8A4FF6FF400440B0890443AC8201A8EB
:10309000FFF70CF81F48874202D1DDF810A001E0CD
:1030A000DDF80CA0A88900F4004040B10AEBCA008A
:1030B00000EB0A1031684900B0FBF1F807E00AEBB9
:1030C000CA0000EB0A1031688900B0FBF1F86420F7
:1030D000B8FBF0F004012009642101FB1089A889E4
:1030E00000F4004040B1322000EBC900B0FBF1F029
:1030F00000F00700044308E0322000EB09106421CF
:10310000B0FBF1F000F00F0004432C8106B0BDE8E5
:10311000F08700000038014001468888C0F30800AD
:103120007047C1F3080282807047000010B586B076
:10313000044601218803FEF793FF16490868FFF74C
:10314000D5FE02940020ADF80C00ADF80E00ADF8ED
:103150001000ADF814000C20ADF8120002A90E48C2
:10316000FFF76EFF4FF4C060FEF712FF25208DF8C9
:10317000040000208DF805008DF8060001208DF870
:10318000070001A8FEF7CCFE01210348FFF7A2FECD
:1031900006B010BDD40100200038014000BFFEE79A
:1031A000F0B54FF47A7590FBF5F5E9B24FF47A7506
:1031B00090FBF5F605FB1605642695FBF6F5EAB2DD
:1031C000642590FBF5F605FB16050A2695FBF6F53A
:1031D000EBB2642590FBF5F605FB16050A2695FB78
:1031E000F6F706FB1755ECB2084D6D5C084E3570CE
:1031F000064DAD5C074E3570044DED5C064E3570E6
:10320000024D2D5D054E3570F0BD00007C3F00087D
:103210003400002035000020360000203700002058
:1032200070B504460D4680212348FEF7B3F9002609
:103230001BE04FF480712048FEF7ACF904F08000E9
:10324000802804D181001C48FEF7A6F904E04FF461
:1032500000711948FEF79EF96006040E4FF4807164
:103260001548FEF799F9701CC6B2082EE1DB00265E
:103270001BE04FF480711048FEF78CF905F08000D8
:10328000802804D181000C48FEF786F904E04FF451
:1032900000710948FEF77EF96806050E4FF480714B
:1032A0000548FEF779F9701CC6B2082EE1DB8021D3
:1032B0000148FEF771F970BD0010014070B5064677
:1032C0000C461546691E2046FDF7C2FD691E605476
:1032D0002A462146304600F005F808B9002070BDA6
:1032E0000120FCE72DE9F04706460F46904606EB25
:1032F0000800B0F5807F00DC17B90020BDE8F0873A
:10330000354600242FE014B105F0070000BBFEF79E
:10331000CBFB4FF000090CE0FEF7A8FBA020FEF766
:1033200061FBFEF7D7FB00B106E009F101001FFACF
:1033300080F9B9F1640FEFDB00BFB9F1640F00D180
:1033400017E02846FEF74EFBFEF7C4FB00B910E07D
:10335000385DFEF747FBFEF7BDFB00B909E0681CCE
:10336000C5B2601C84B24445CDDBFEF79DFB012055
:10337000C4E7FEF799FB0020C0E700002DE9F04705
:1033800081468A46164616B90220BDE8F087002518
:1033900034E0002400272BE01A4800EB0710408897
:1033A00009EB0501884200D021E0164800EB071424
:1033B000207800F0020008B90220E6E716F81500B0
:1033C0004FF47F4101EA00206900491C715C40EA2A
:1033D0000108A088404502DCE088404501DA02206F
:1033E000D3E7E06810B14046E168884700BF7F1C22
:1033F000062FD1D30CB90120C7E76D1C5545C8D3A2
:103400000020C2E74400002070B504460C251C2DA6
:1034100001DD002070BD2A462146C820FFF74EFF7F
:1034200008B90020F6E72A462146E420FFF746FFC8
:103430000120EFE70EB507460E46144619491AA0BB
:1034400000F03CFB1749384600F038FB15491CA03A
:1034500000F034FB1349304600F030FB11491AA04C
:1034600000F02CFB03AD0021681E054601700A2107
:10347000681E054601700CE00A2094FBF0F100FB89
:1034800011403030C1B2681E054601700A2094FB1D
:10349000F0F4002CF0DC0349284600F00FFB00F0AC
:1034A00026F80000100200202A2A2A206173736582
:1034B0007274696F6E206661696C65643A20000001
:1034C0002C2066696C6520002C206C696E652000DC
:1034D00002E008C8121F08C1002AFAD170477047DD
:1034E000002001E001C1121F002AFBD1704700BF7C
:1034F000FEE7000010B5002406480078012806D138
:1035000005480068804700200249087000E0062452
:10351000204610BDA6000020AC0000202DE9F04799
:1035200005460C464FF0000A2088052834D16878FB
:103530004FEA0029A87840EA0909E87806022879C4
:103540000643012E25DB7D2E23DC2F460020208024
:10355000032007F8010B2088401C20807006000E15
:1035600007F8010B2088401C208000233246494682
:10357000384600F067FA8046B8F1000F04D04046A4
:1035800000F0B2FA824609E0208800EB4600208075
:1035900004E04FF0030A01E04FF0030A5046BDE893
:1035A000F0872DE9F04104460E464FF000083088C0
:1035B000052810D160780702A078074301231A4636
:1035C0003946E01C00F03EFA054635B1284600F0C9
:1035D0008BFA804601E04FF003084046BDE8F081D9
:1035E0002DE9F04704460E464FF0000A30880628C1
:1035F00026DB60784FEA0028A07840EA0808E078E7
:1036000005022079054394F80590012D15DB782DEE
:1036100013DC6806000E48450FD101232A464146B7
:10362000A01D00F00FFA074627B1384600F05CFAFB
:10363000824607E00520308004E04FF0030A01E0F5
:103640004FF0030A5046BDE8F08700002DE9F0472F
:1036500005460C4616461F46DDF820904FF0000840
:103660001CB1012C01DBF72C02DD4FF0020835E024
:103670001C48047005BB1C481C4908601C481D49B7
:1036800008601D481D4908601D481E49086000204B
:103690001D4908601D481E4908601E481E490860F3
:1036A0001E481F4908604B463A4631460D4800788F
:1036B00000F0E4F8804602E04FF0020800BF00BFCF
:1036C000B8F1000F0AD100F0CDFA10B94FF003089D
:1036D00004E0144805700120134908704046BDE815
:1036E000F0870000A4000020193A0008AC00002078
:1036F000353A0008B000002071390008A800002009
:10370000CD380008B4000020B8000020513D00086A
:10371000BC000020B13E0008C0000020293E000887
:10372000C4000020A5000020A600002038B5002518
:103730004648007808B1062038BD684600F080FA97
:1037400001287DD19DF8000030B1012805D0022864
:1037500018D0032876D174E074E03D4A3D493E48D4
:103760003E4B1B68984705465DB93B4800783C498D
:103770000978884202D03848007810B9022000F059
:1037800079FA5FE033480068007836490870012014
:1037900035490870002417E0344810F8340000B9A7
:1037A00014E0324810F834002E49097888420AD1D2
:1037B0002E4800EBC400264942682648006890471E
:1037C0002949087002E0641C102CE5DB00BF254885
:1037D0000078642804D122212548FFF7A2FC31E0BB
:1037E0001D48007858B320480078C8B10020184917
:1037F00008801C48007840F0800115480288008845
:10380000401C134B188013480068815416480178F7
:10381000184602880088401C18800E4800688154B1
:1038200014480078012800D100BF094802880948DF
:1038300001680B480078104B1B689847054601E06B
:1038400001E000BF00BF002076E70000A6000020D6
:10385000560100205001002054010020B400002037
:10386000A40000205501002058010020D0000020B5
:1038700000380140A5000020A80000202DE9F047F5
:1038800081460E4614461F464FF000083B4608226C
:103890002146304600F006FA012802D04FF0030816
:1038A0000FE0B4F5964F01D9232503E060000649E7
:1038B000B1FBF0F5A8B200F011FA012801D04FF0E9
:1038C00003084046BDE8F087A07F17002DE9F041CE
:1038D00004460D461646002711480088FF2800DCE4
:1038E00004E09C220FA117A0FFF7A4FD0C4800885C
:1038F000042810DB0A4801881C4800F021F950B95F
:103900001A480078207006480088C01E308017488A
:10391000401C286000E005273846BDE8F081000023
:10392000660100202E2E5C2E2E5C4D69645F4D6F6B
:10393000646275735C7274755C6D627274752E630B
:1039400000000000757352637642756666657250BA
:103950006F73203C204D425F5345525F5044555F8A
:1039600053495A455F4D415800000000F2020020C3
:103970002DE9F04105460E4617464FF00008214854
:103980000078012838D1701E1F49086001201F49A6
:1039900008801D4800680570084600883844088083
:1039A000084601881848006800F0CAF8044617491C
:1039B0000888411C154B198015490C5422121946D0
:1039C0000888411C198012490A54012011490870C5
:1039D0000D490968087800F075F90B480068401C2B
:1039E0000949086009480088401E084908800121EB
:1039F000002000F0C1F801E04FF005084046BDE8A6
:103A0000F08100005D0100206001002064010020C1
:103A1000F20200205C01002010B50020044908706B
:103A20000021012000F0A8F800F0F4F810BD00001B
:103A30005D01002010B50021084600F09DF800F05F
:103A4000D3F810BD2DE9F04107460C4615469846BF
:103A5000B8F1000F07D1E9B2E0B2084A13683A465C
:103A60009847064606E0E9B2E0B2044A53683A468F
:103A7000984706463046BDE8F08100006801002006
:103A80000146002019B1012901DBF72901DD0220DF
:103A900001E0014A11707047A400002070B505468E
:103AA0000C460548844203D1284600F047F870BD13
:103AB0004FF0FF30FBE700001002002070B50D460C
:103AC000044602E02946FFF7E9FF14F8010B00283D
:103AD000F8D170BDFEF7DEFEFDF7F6FBFDF742F90B
:103AE00001E0FFF7C3F8FCE7014621B1012904D04A
:103AF000072906D103E0002005E0022003E00620AC
:103B000001E0042000BF00BF7047000010B502486C
:103B10000068804710BD0000C400002010B50248B6
:103B20000068804710BD0000BC00002010B50248AE
:103B30000068804710BD0000C000002000BE704734
:103B400070B502460C46FF25FF2309E012F8010B71
:103B500080EA03010648405C80EA05030548455CAD
:103B6000201EA4F10106B4B2F0D143EA052070BDD5
:103B7000983F00089840000870B505460C46012D96
:103B80000AD1012240F225511548FFF734FA2902E3
:103B90001448FDF7FFFC0AE0002240F225511048CE
:103BA000FFF729FA4FF480710E48FDF7F5FC012C60
:103BB0000AD1012240F226610948FFF71CFA2102CE
:103BC0000848FDF7E9FC0AE0002240F226610448BB
:103BD000FFF711FA4FF480710248FDF7DBFC70BD6E
:103BE000003801400008014010B500210848FEF7E8
:103BF000E9FF01210648FEF7C5FE00220121044825
:103C0000FEF7D7FF00210248FEF7C2FE10BD0000FC
:103C1000000C004010B500210848FEF7D3FF012139
:103C20000648FEF7AFFE012211460448FEF7C1FF29
:103C300001210248FEF7ACFE10BD0000000C004060
:103C400001460020054A127832B1054A12780A70FE
:103C50000022024B1A70012070470000D1010020A1
:103C6000D0010020002002490870012070470000A8
:103C7000D101002001460120024A10700248017063
:103C800001207047D1010020D001002010B504466A
:103C900003490868FFF740FA2070012010BD0000BA
:103CA000D40100202DE9F04105460C4616461F467A
:103CB000FEF7C2FDFDF738FD2046FFF737FA012079
:103CC000BDE8F08110B50446034908682146FFF7B6
:103CD00028FA012010BD0000D40100201FB50446C1
:103CE0004FF4C060FEF754F901210820FEF798F95F
:103CF0001648FEF759FE601E80B2ADF8040040F68B
:103D00000F60ADF800000020ADF80600ADF802002D
:103D100069460E48FEF758FF01210C48FEF732FEB7
:103D2000012211460948FEF744FF32208DF80C00AD
:103D300000208DF80D008DF80E0001208DF80F0089
:103D400003A8FEF7EDF8012004B010BD000C004000
:103D500038B500242148007800B904E0ED2220A104
:103D600027A0FFF767FB6846FFF790FF2B48007816
:103D700030B101280AD0022819D003282BD102E043
:103D8000FFF748FF27E0FFF745FF24E00020244924
:103D900008809DF800200888411C214B198021498A
:103DA0000A5402201D490870FFF734FF13E01C4835
:103DB0000088FF2809DC9DF8002019490888411C6B
:103DC000174B198017490A5402E003201349087061
:103DD000FFF720FF00BF00BF204638BD5C01002078
:103DE0002E2E5C2E2E5C4D69645F4D6F6462757380
:103DF0005C7274755C6D627274752E6300000000F5
:103E000065536E645374617465203D3D2053544185
:103E100054455F54585F49444C4500005D01002003
:103E200066010020F202002010B500241648007838
:103E300020B1022807D003280BD109E00020FFF7AA
:103E400019FF044618E00120FFF714FF044613E0B1
:103E500012E00D48007838B10B480078022803D0F2
:103E600009480078032800D105E040F2611207A15B
:103E70000E48FFF7DFFA00BF00BFFFF7B5FE0120D5
:103E800001490870204610BD5D0100202E2E5C2ED9
:103E90002E5C4D69645F4D6F646275735C727475FE
:103EA0005C6D627274752E6300000000A44100080E
:103EB00010B500241B480078012800D105E04FF41C
:103EC000947219A120A0FFF7B5FA2648007810B126
:103ED000012824D104E000210120FFF74DFE1EE05F
:103EE0002148008878B1214909680878FFF7EAFE7F
:103EF0001E480068401C1D4908601B480088401E81
:103F0000194908800AE00320FFF7B4FE04460021A7
:103F10000120FFF731FE00201249087000BF00BFEA
:103F2000204610BD5D0100202E2E5C2E2E5C4D69BA
:103F3000645F4D6F646275735C7274755C6D627200
:103F400074752E63000000006552637653746174CB
:103F500065203D3D2053544154455F52585F4944CC
:103F60004C4500005C01002064010020600100203D
:103F70005A5A010080250000000000007E306D7953
:103F8000335B5F707F7B00000000000000000000DA
:103F9000712300087D33000800C1814001C08041C9
:103FA00001C0804100C1814001C0804100C1814009
:103FB00000C1814001C0804101C0804100C18140F9
:103FC00000C1814001C0804100C1814001C08041E9
:103FD00001C0804100C1814001C0804100C18140D9
:103FE00000C1814001C0804100C1814001C08041C9
:103FF00001C0804100C1814000C1814001C08041B9
:1040000001C0804100C1814001C0804100C18140A8
:1040100000C1814001C0804101C0804100C1814098
:1040200000C1814001C0804100C1814001C0804188
:1040300001C0804100C1814000C1814001C0804178
:1040400001C0804100C1814001C0804100C1814068
:1040500000C1814001C0804100C1814001C0804158
:1040600001C0804100C1814001C0804100C1814048
:1040700000C1814001C0804101C0804100C1814038
:1040800000C1814001C0804100C1814001C0804128
:1040900001C0804100C1814000C0C101C30302C210
:1040A000C60607C705C5C404CC0C0DCD0FCFCE0E78
:1040B0000ACACB0BC90908C8D81819D91BDBDA1AE8
:1040C0001EDEDF1FDD1D1CDC14D4D515D71716D658
:1040D000D21213D311D1D010F03031F133F3F232C8
:1040E00036F6F737F53534F43CFCFD3DFF3F3EFE38
:1040F000FA3A3BFB39F9F83828E8E929EB2B2AEAA8
:10410000EE2E2FEF2DEDEC2CE42425E527E7E62617
:1041100022E2E323E12120E0A06061A163A3A26287
:1041200066A6A767A56564A46CACAD6DAF6F6EAEF7
:10413000AA6A6BAB69A9A86878B8B979BB7B7ABA67
:10414000BE7E7FBF7DBDBC7CB47475B577B7B676D7
:1041500072B2B373B17170B0509091519353529247
:1041600096565797559594549C5C5D9D5F9F9E5EB7
:104170005A9A9B5B99595898884849894B8B8A4A27
:104180004E8E8F4F8D4D4C8C448485458747468697
:1041900082424383418180401F1D1F1E1F1E1F1F1F
:1041A0001E1F1E1F2820655263765374617465209C
:1041B0003D3D2053544154455F52585F494E495448
:1041C0002029207C7C2028206552637653746174FA
:1041D00065203D3D2053544154455F52585F524342
:1041E000562029207C7C20282065526376537461F8
:1041F0007465203D3D2053544154455F52585F45FE
:1042000052524F522029000028420008000000208E
:10421000140200005E080008CC42000814020020CE
:1042200064120000E03400082125E803E80313636A
:1042300027220825D007D0072B6F250C1A01022151
:104240002B151F0C1A0A02212B71170C0112292899
:10425000414BB11E20493A217A651052027A9110E1
:104260001971315A7D103A035E49341AC31412038E
:104270007A0B103AD92449400124295A131D3533A9
:1042800008101AE10832061AA30801943995140C93
:1042900001409A200C29B90916289A400C2280392D
:1042A0002B1C10014017E11A38201A080432022290
:1042B0000472252D010203040410090607080902EF
:0C42C0000406081BA24A1E891C29184194
:0400000508000131BD
:00000001FF
