:020000040800F2
:1000000070150020650100086D0100086F010008EF
:10001000710100087301000875010008000000006C
:100020000000000000000000000000007701000850
:1000300079010008000000007B010008010E0008A3
:100040007F0100087F0100087F0100087F01000890
:100050007F0100087F0100087F0100087F01000880
:100060007F0100087F0100087F0100087F01000870
:100070007F0100087F0100087F0100087F01000860
:100080007F0100087F0100087F0100087F01000850
:100090007F0100087F0100087F0100087F01000840
:1000A0007F0100087F0100087F0100087F01000830
:1000B0007F0100087F0100087F0100087F01000820
:1000C0007F0100087F0100087F0100087F01000810
:1000D0007F0100087F0100087F0100087F01000800
:1000E0007F0100087F0100087F0100087F010008F0
:1000F0007F0100087F0100087F0100087F010008E0
:100100007F0100087F0100087F0100087F010008CF
:100110007F0100087F0100087F0100087F010008BF
:100120007F0100087F0100087F0100087F010008AF
:10013000DFF80CD000F06CF8004800479119000877
:1001400070150020EFF30980704780F3098870472D
:10015000EFF30880704780F30888704740BA704713
:10016000C0BA70470648804706480047FEE7FEE7EA
:10017000FEE7FEE7FEE7FEE7FEE7FEE7FEE7FEE757
:10018000310E00083101000840EA01039B0703D04B
:1001900009E008C9121F08C0042AFAD203E011F8C6
:1001A000013B00F8013B521EF9D270472DE9F05F88
:1001B0000546002092469B468846064681464024D6
:1001C0001BE0284641464746224600F042F8534687
:1001D0005A46C01A914110D311461846224600F0E3
:1001E00029F82D1A67EB01084F462246012000210D
:1001F00000F020F817EB00094E41201EA4F1010485
:10020000DFDC484631462A464346BDE8F09F000001
:10021000064C074D06E0E06840F0010394E8070053
:1002200098471034AC42F6D3FFF786FFB01A0008A7
:10023000D01A0008202A04DB203A00FA02F100203C
:1002400070479140C2F1200320FA03F31943904014
:100250007047202A04DB203A21FA02F0002170477F
:1002600021FA02F3D040C2F120029140084319461E
:10027000704700000F480468B4F1005F0BD980009C
:10028000844208D272B62046FFF765FF09484568E8
:100290002E46B04700BF00BF0748006800F4E0608A
:1002A00006490843001D04490860BFF34F8F00BF93
:1002B00000BFFEE7003000080CED00E00000FA058A
:1002C00030B502460B46002016E012F8015B80EACA
:1002D000052000210EE000F400442CB141F221047D
:1002E00084EA4004A0B203E04FF6FF7404EA400041
:1002F0004C1CE1B20829EEDB1C1EA3F10105ABB2D8
:10030000E3D130BD0748006840F0807005490860BF
:100310000020054948600846006840F00100086078
:1003200070470000FCED00E0001000E030B504462E
:10033000002504E04FF47A7000F004F86D1CA5422B
:10034000F8D330BD10B501460C4C626801EBC10416
:10035000E300D018904205DD00BF084C6468844279
:10036000FBD309E000BF054C64688442FBD200BFA8
:10037000024C64688442FBD310BD0000001000E012
:1003800010B5FFF7BFFF00F083FD00F06FFB00F03A
:100390002FFA10BD0149C8607047000000200240DC
:1003A00030B5044604254FF4302000F06FF80546C0
:1003B000042D17D10C48006940F002000A49086179
:1003C00008464461006940F0400008614FF4302065
:1003D00000F05CF805460448006941F6FD710840EC
:1003E00001490861284630BD0020024004200B4925
:1003F000C96801F0010109B101200EE00749C9688F
:1004000001F0040109B1022007E00449C96801F0C4
:10041000100109B1032000E00420704700200240D1
:100420000348006940F080000149086170470000FE
:100430000020024070B504460D460426F00200F08C
:1004400025F80646042E11D10948006940F0010044
:10045000074908612580F00200F018F806460448B4
:10046000006941F6FE71084001490861304670BDDF
:100470000020024002480349486003484860704732
:100480002301674500200240AB89EFCD00B502464D
:100490000423FFF7ABFF034603E0FFF7A7FF034684
:1004A000521E012B01D1002AF7D102B905231846AB
:1004B00000BD00002DE9F04105460C461CB128198D
:1004C0002949884202D90020BDE8F081EFB2042614
:1004D000FFF7D0FFC7F50060A04232D23420FFF70B
:1004E00059FF2846FFF75CFF0646042E00D036E091
:1004F000C7F500600544C7F50060241AC4F3C72897
:100500000BE03420FFF746FF2846FFF749FF064679
:10051000042E00D023E005F50065B8F10000A8F135
:10052000010101F0FF08ECD1C4F30A0098B13420B6
:10053000FFF730FF2846FFF733FF0646042E0AD0A8
:100540000DE03420FFF726FF2846FFF729FF064677
:10055000042E00D003E0FFF763FF0120B4E7FFF7AC
:100560005FFF0020B0E70000FFFF03082DE9F04720
:1005700004460D461646A0191C49884202D900209F
:10058000BDE8F08704F0010008B10020F8E74FF063
:100590000408FFF76FFF4FF0000912E03420FFF767
:1005A000F9FE29882046FFF745FF8046B8F1040F81
:1005B00003D0FFF735FF0020E2E7AD1CA41C09F1D2
:1005C0000109B9EB560FE9D306F0010050B1342010
:1005D000FFF7E0FE287840F47F4739462046FFF7D2
:1005E00029FF8046FFF71CFF0120C9E7FFFF030832
:1005F0002DE9F041024600250026002000230024BA
:10060000002791F803C00CF00F0591F803C00CF01F
:10061000100CBCF1000F03D091F802C04CEA0505A4
:1006200091F800C0BCF1000F31D0146800202BE01D
:100630004FF0010C0CFA00F3B1F800C00CEA03060D
:100640009E4220D183004FF00F0C0CFA03F7BC43FD
:1006500005FA03FC4CEA040491F803C0BCF1280F2E
:1006600006D14FF0010C0CFA00FCC2F814C00AE0ED
:1006700091F803C0BCF1480F05D14FF0010C0CFA02
:1006800000FCC2F810C0401C0828D1D31460B1F897
:1006900000C0BCF1FF0F34DD546800202EE000F1F3
:1006A000080C4FF0010808FA0CF3B1F800C00CEA8E
:1006B00003069E4221D183004FF00F0C0CFA03F782
:1006C000BC4305FA03FC4CEA040491F803C0BCF1F6
:1006D000280F05D100F1080C08FA0CF8C2F81480B4
:1006E00091F803C0BCF1480F07D100F1080C4FF09E
:1006F000010808FA0CF8C2F81080401C0828CED374
:100700005460BDE8F0810246002093680B400BB1B5
:10071000012000E00020704741617047016170478F
:100720000AB1016100E04161704710B504462046FE
:1007300000F0A6F910BD000001490868496870473B
:100740001800002008B513498868012100F004F959
:100750001048008A80B2ADF8000018208DF8030020
:1007600001208DF802000B49C8686946FFF740FF79
:100770000848808A80B2ADF8000004208DF803009C
:1007800001208DF802000349C8686946FFF730FF71
:1007900008BD000024000020F0B5144A0025002404
:1007A000002320E0B1FBF2F6303606F0FF0C2E46B7
:1007B0006D1C00F806C0B1FBF2F602FB16110A260A
:1007C000B2FBF6F26E1E865D302E01D1012600E0EE
:1007D00000260CB9012700E000273E400EB100259D
:1007E00000E0641C5B1C0A2BDCD3F0BD00CA9A3B02
:1007F00038B500242FE004EB4401184A52F82100D8
:10080000012100F0A9F804EB4400144901EB800039
:10081000008980B2ADF8000010208DF8030001209F
:100820008DF8020004EB44010C4A02EB8101486898
:100830006946FFF7DDFE04EB4402084B03EB82023E
:10084000128991B204EB440203EB82025068FFF775
:1008500065FF601CC4B2022CCDD338BD000000205F
:1008600008B526A000F01CFEFFF766FF0446002531
:10087000002614E0FFF760FF044644F62060001BEA
:100880004FF47A71B0FBF1F0C5B2B54207D02946FA
:1008900023A000F005FE2E46012000F02DFB44F6BB
:1008A0002060844204D26846FFF73FFF0028E1D071
:1008B00044F62060844201D3FFF7DCFC1DE01A48B7
:1008C00000F0EEFD194800F0EBFD194800F0E8FDDE
:1008D000184800F0E5FD00BF6846FFF726FF002836
:1008E000FAD09DF80000312801D100F039FC9DF8C4
:1008F0000000322801D1FFF7BDFCE0E70D48697424
:1009000020616E79206B657920746F2073746F702D
:10091000206175746F626F6F743A202000000000D0
:100920000808253264000000241A0008E0190008B5
:100930009C1900086C1A000829B1064A1269024382
:10094000044B1A6104E0034A12698243014B1A61A5
:10095000704700000010024029B1064A9269024324
:10096000044B9A6104E0034A92698243014B9A6105
:10097000704700000010024029B1064AD2680243C5
:10098000044BDA6004E0034AD2688243014BDA6028
:10099000704700000010024030B500210022002402
:1009A00000232D4D6D6805F00C0121B1042905D0FF
:1009B000082923D105E0294D056022E0274D056077
:1009C0001FE0254D6D6805F47012234D6D6805F428
:1009D0008034022505EB92421CB9214D5543056038
:1009E0000BE01D4D6D6805F400351DB11C4D5543E0
:1009F000056002E0194D5543056002E0174D0560A2
:100A000000BF00BF144D6D6805F0F0010909154DD8
:100A10006B5C0568DD4045600F4D6D6805F4E06175
:100A2000090A104D6B5C4568DD4085600A4D6D68B4
:100A300005F46051C90A0B4D6B5C4568DD40C5602B
:100A4000054D6D6805F44041890B074D6B5CC56829
:100A5000B5FBF3F5056130BD0010024000127A00CD
:100A600000093D00400000205000002010B5FFF7B5
:100A700069FE4FF4165000F04BFB00F0ABF910BDCF
:100A800010B5044606490868202100F0C3FA28B1D1
:100A90000348006880882070012010BD0020FCE71A
:100AA0002400002070B505460C4605E02846FFF7F7
:100AB000E7FF08B1002070BD201EA4F10104F5D1AC
:100AC000401EF8E72DE9F84F04460E4691460020F7
:100AD000306049466846FFF7E5FF18B14FF0FF3038
:100AE000BDE8F88F9DF80000182813D006DC012817
:100AF00009D0022809D0042820D109E041281AD0C1
:100B000061281BD118E080251BE04FF4806518E0B8
:100B10000020E5E749466846FFF7C4FF40B99DF865
:100B20000000182804D14FF0FF3030600020D7E7D4
:100B30004FF0FF30D4E700BF0120D1E74FF0FF3086
:100B4000CEE700BF9DF800002070012709E0E01902
:100B50004946FFF7A7FF10B14FF0FF30C0E7781C00
:100B600087B2681D8742F2DB6078A1780843FF28CE
:100B700002D04FF0FF30B3E72946E01CFFF7A0FB9F
:100B80008046281D215CE81C205C41EA002AD045F3
:100B900002D04FF0FF30A3E735600020A0E710B58A
:100BA0000446204600F002F810BD000010B50446CF
:100BB0004FF480610A48FFF7B1FD0A4908682146F1
:100BC00000F0A2FA00BF07490868402100F022FAAD
:100BD0000028F8D04FF480610148FFF79DFD10BD5B
:100BE000001001402400002010B500F001F810BDF5
:100BF0000CB50020019000903348006840F480302C
:100C00003149086000BF3048006800F400300090AF
:100C10000198401C0190009818B90198B0F5A06F98
:100C2000F1D12948006800F4003010B10120009093
:100C300001E0002000900098012843D1234800687B
:100C400040F01000214908600846006820F00300C9
:100C500008600846006840F0020008601A484068D2
:100C6000194948600846406848600846406840F4B2
:100C7000806048600846406820F47C104860084660
:100C8000406840F4E81048600846006840F0807012
:100C9000086000BF0C48006800F000700028F9D020
:100CA0000948406820F0030007494860084640684A
:100CB00040F00200486000BF0348406800F00C00AC
:100CC0000828F9D10CBD00000010024000200240AD
:100CD00070B502460C46002100250023107830280C
:100CE00043D15078782802D0507858283DD1907858
:100CF00008B9002070BD022130E0505C10B92360BB
:100D000001252DE0505C412802DB505C46280BDDBC
:100D1000505C612802DB505C662805DD505C3028A1
:100D200019DB505C392816DC505C302805DB505C40
:100D3000392802DC505C30380AE0505C412805DB81
:100D4000505C462802DC505C373801E0505C573874
:100D500000EB031301E0002502E0491C0B29CCD372
:100D600000BF0B2934D3002532E000212AE0505C7B
:100D700010B92360012527E0505C6B2802D0505C3D
:100D80004B2804D119B19B02236001251CE0505C63
:100D90006D2802D0505C4D2804D119B11B05236089
:100DA000012511E0505C302809DB505C392806DC55
:100DB000505C303803EB830600EB460301E000256E
:100DC00002E0491C0B29D2D300BF0B2900D3002518
:100DD00028468FE708B501211020FFF7BDFD4FF42D
:100DE0008060ADF8000010208DF8030001208DF820
:100DF000020069460148FFF7FBFB08BD00100140F7
:100E000010B5094802684068521C40F100000649CC
:100E10000A6048600548006800B910BD03480068D2
:100E2000804700BFF9E700001800002020000020E4
:100E300010B51348006840F00100114908600846E9
:100E40004068104908400E494860084600680E494D
:100E500008400B4908600846006820F480200860BC
:100E60000846406820F4FE0048604FF41F00886088
:100E7000FFF7BAFE4FF000600449086010BD0000A3
:100E8000001002400000FFF8FFFFF6FE08ED00E052
:100E900030B5164800684FF47A72B0FBF2F1B1F148
:100EA000807F01D301201DE021F07F40401E4FF0E4
:100EB000E022506150170F22002807DA13071D0E99
:100EC0000B4B00F00F04241F1D5503E013071C0EED
:100ED000084B1C5400BF00204FF0E0229061072017
:100EE0001061002008B100BFFEE730BD54000020B3
:100EF00018ED00E000E400E070B50446022C00D3D9
:100F000070BD04EB4402104B03EB8202128991B2D4
:100F100004EB440203EB82025068FFF7F4FB054642
:100F2000C5F10100C5B204EB4402074B03EB82029A
:100F3000128991B204EB440203EB820250682A4604
:100F4000FFF7EEFB00BFDBE70000002001F40072BA
:100F5000B2F5007F00D100BFCA430280704721B1C3
:100F6000828942F40052828104E082894DF6FF7347
:100F70001A4082817047000010B504462048844220
:100F800009D101218803FFF7F7FC00214FF48040CD
:100F9000FFF7F2FC32E01B48844209D101214804EA
:100FA000FFF7CAFC00214FF40030FFF7C5FC25E035
:100FB0001548844209D101218804FFF7BDFC0021B6
:100FC0004FF48020FFF7B8FC18E01048844209D1A4
:100FD0000121C804FFF7B0FC00214FF40020FFF707
:100FE000ABFC0BE00A48844208D101210805FFF759
:100FF000A3FC00214FF48010FFF79EFC10BD000001
:10100000003801400044004000480040004C0040CF
:101010000050004002460020B1F5007F00D100BF23
:1010200013880B400BB1012000E000207047000046
:101030002DE9F04786B005460E460024A24600BFC3
:10104000A1460027B08900B100BF2F462C8A4CF67C
:10105000FF700440F08804432C82AC894EF6F310F4
:101060000440B08831890843718908430443AC8146
:10107000AC8A4FF6FF400440B0890443AC8201A81B
:10108000FFF78AFC1F48874202D1DDF810A001E07B
:10109000DDF80CA0A88900F4004040B10AEBCA00BA
:1010A00000EB0A1031684900B0FBF1F807E00AEBE9
:1010B000CA0000EB0A1031688900B0FBF1F8642027
:1010C000B8FBF0F004012009642101FB1089A88914
:1010D00000F4004040B1322000EBC900B0FBF1F059
:1010E00000F00700044308E0322000EB09106421FF
:1010F000B0FBF1F000F00F0004432C8106B0BDE816
:10110000F087000000380140C1F308028280704778
:101110001FB50446114948680121FFF71DFC0F491E
:101120000868FFF729FF4FF4165000900020ADF833
:101130000400ADF80600ADF80800ADF80C000C2076
:10114000ADF80A00054908686946FFF771FF0349D1
:1011500008680121FFF703FF1FBD000024000020E5
:101160003EB5002000900190029000241BA000F0EA
:1011700097F9294800F0C8F804463220FFF7D6F85E
:10118000002C15DD25A000F08BF92F492FA000F0D1
:1011900087F921466846FFF7FFFA2FA000F080F993
:1011A00069462CA000F07CF92FA000F079F914E03A
:1011B000601C18B92FA000F073F90EE0A01C18B93C
:1011C0003CA000F06DF908E0E01C18B940A000F068
:1011D00067F902E044A000F063F93EBD576169740D
:1011E000696E6720666F72207468652066696C6539
:1011F00020746F2062652073656E74202E2E2E2061
:101200002870726573732027612720746F206162D4
:101210006F7274290A0D00006C0000200A0A0D206C
:1012200050726F6772616D6D696E6720436F6D708C
:101230006C65746564205375636365737366756C60
:101240006C79210A0D0D0A006C0400205B204E61B0
:101250006D653A20257300002C696D6167655369DF
:101260007A653A20000000002042797465735D0DB4
:101270000A0000000A0A0D54686520696D616765FF
:101280002073697A652069732068696768657220D0
:101290007468616E2074686520616C6C6F7765643A
:1012A000207370616365206D656D6F7279210A0D21
:1012B000000000000A0A0D56657269666963617470
:1012C000696F6E206661696C6564210A0D0000001B
:1012D0000D0A0A41626F7274656420627920757329
:1012E00065722E0A0D0000000A0D4661696C656486
:1012F00020746F2072656365697665207468652067
:1013000066696C65210A0D002DE9F04FADF22C4D98
:10131000074600200190DFF880A1834681460290B5
:1013200000BF4FF00008002003903E4600BF4FF47E
:10133000801204A909A8FFF7C5FB10B101287DD1CF
:101340007DE04FF000090498B0F1FF3F01D070B983
:1013500007E00620FFF723FC00200DF22C4DBDE82E
:10136000F08F0620FFF71BFC0120039064E0B8F12A
:10137000000F4CD19DF82700002841D000250DF129
:10138000270405E014F8012B28466D1C43490A5434
:10139000207808B1FF2DF5DD002228466D1C3F495D
:1013A0000A540025641C05E014F8012B28466D1C26
:1013B00005A90A542078202801D0102DF4DB002242
:1013C00028466D1C05A90A5401A905A8FFF780FC51
:1013D0000198B0F5743F08DD1820FFF7E0FB1820F6
:1013E000FFF7DDFB4FF0FF30B7E750460199FFF7FD
:1013F00061F80620FFF7D3FB4320FFF7D0FB16E090
:101400000620FFF7CCFB01200390834614E00DF18A
:1014100027013046049AFEF7B7FE31465046049A3B
:10142000FFF7A4F8049882440620FFF7B8FB08F100
:1014300001080120029000BF00BF1DE008E0182055
:10144000FFF7ADFB1820FFF7AAFB6FF0020084E75F
:101450000298002801DD09F10109B9F1050F07DD46
:101460001820FFF79CFB1820FFF799FB002074E77A
:101470004320FFF794FB00BF00BF039800283FF410
:1014800056AF00BF00BFBBF1000F3FF44AAF00BF33
:1014900000BF019861E70000003000086C040020E4
:1014A0000FB4054B10B503A9044A029800F018F8D0
:1014B00010BC5DF814FB000045190008680000200E
:1014C00002E008C8121F08C1002AFAD1704770470D
:1014D000002001E001C1121F002AFBD1704700006B
:1014E0002DE9FF4F8DB00F460546002606E0252862
:1014F0000BD0DDE90F1290476D1C761C2878002870
:10150000F5D111B03046BDE8F08F0024A246A146C7
:101510000122EC4900E0044315F8013F203B02FAA8
:1015200003F00842F7D128782A2810D06FF02F0254
:101530002878A0F13001092914D80AEB8A0102EBBE
:10154000410144F0020400EB010A6D1CF0E701CFF9
:101550005FEA000A03D544F40054CAF1000A44F0DB
:1015600002046D1C28782E2817D115F8010F44F0BD
:1015700004042A280ED06FF02F022878A0F1300141
:1015800009290AD809EB890102EB410100EB0109A5
:101590006D1CF2E757F8049B6D1C28786C280FD05F
:1015A00006DC4C2817D068280DD06A2814D104E036
:1015B000742810D07A280FD10DE044F400140AE00A
:1015C00044F4801401E044F440146978814202D16B
:1015D00004F580146D1C6D1C2A786E2A1FD00CDC5B
:1015E000632A31D004DC002A8BD0582A11D1A3E021
:1015F000642A68D0692A0CD165E0732A2ED004DCF5
:101600006F2A73D0702A04D19BE0752A6FD0782A94
:101610006ED01046DDE90F129047761C50E1C4F3FE
:101620000250022806D0032809D0042801CF09D08F
:10163000066045E101CFF117C0E9006140E101CF4B
:1016400006803DE106703BE117F8040B8DF80000C1
:1016500000208DF80100EB46012003E057F804BBA1
:101660004FF0FF3061074FF0000102D40DE008F1A8
:101670000101884649450FDA8045F8DB1BF8081060
:101680000029F4D108E008F1010188468142FADB23
:101690001BF808100029F6D1DDE90F23AAEB08009A
:1016A0008146214600F036F9304400EB080604E09C
:1016B000DDE90F121BF8010B9047B8F10108F7D2D2
:1016C00021464846F7E00A21C4F302534FF0000BCD
:1016D0000891022B04D001CFC117032B09D00AE0D7
:1016E000FF1D27F00707F7E8020108E032E01FE0DE
:1016F00020E000B2C117042B01D140B2C117031E74
:1017000071F1000307DA4FF0000CD0EB0C006CEB2A
:1017100001012D2302E0230504D52B238DF824306D
:10172000012303E0E30701D02023F7E7984658E0C0
:101730000A2110E010210EE010204FF0000B08905D
:101740000CE010214FF0000B44F004044FF00809A6
:10175000089103E008214FF0000B0891C4F30253F5
:10176000022B04D001CF0021032B06D006E0FF1D81
:1017700027F00707F7E8020103E080B2042B00D14D
:10178000C0B24FF0000823072BD5702A07D0DDF830
:1017900020C08CF0100C5CEA0B0C05D00EE040234E
:1017A0008DF82430012308E050EA010306D03023ED
:1017B0008DF824308DF8252002239846DDF820C0CE
:1017C0008CF0080C5CEA0B0C0BD150EA010301D140
:1017D000630706D530238DF824304FF00108A9F1B6
:1017E0000109582A04D038A20B9208AA0A920BE0E9
:1017F0003AA2F9E75B46089AFEF7D8FC0B9B9B5C84
:101800000A9A521E0A92137050EA0102F2D10A9803
:10181000ADEB000000F1200B600702D524F480340A
:1018200001E04FF00109D94502DDA9EB0B0000E012
:10183000002000EB0B0141440890AAEB010AE003F1
:1018400006D4DDE90F232146504600F063F8064434
:101850004FF0000908E009A911F80900DDE90F12AD
:10186000904709F10109761CC145F4DBE0030CD572
:10187000DDE90F232146504600F04CF8064404E011
:10188000DDE90F1230209047761C0899481E089019
:101890000029F5DC08E00A980A990078491C0A91A9
:1018A000DDE90F129047761CBBF10001ABF1010B93
:1018B000F1DC21465046DDE90F2300F019F806441B
:1018C0006D1C1BE6092801003031323334353637C0
:1018D000383961626364656600000000303132337C
:1018E000343536373839414243444546000000001C
:1018F0002DE9F041044600251E461746880404D40D
:1019000005E039462020B0476D1C641EF9D52846F5
:10191000BDE8F0812DE9F041044600251E469046C1
:10192000C80301D5302700E02027880404D505E04E
:1019300041463846B0476D1C641EF9D52846BDE8BF
:10194000F081000070B504460D464FF480610D48EB
:10195000FEF7E4FE40210C48FFF7F8FAE1B20B4A2B
:101960001068FFF7D1FB00BF084908684021FFF766
:1019700051FB0028F8D04FF480610248FEF7CCFEFE
:10198000204670BD001001400038014024000020B6
:10199000FEF7F6FC01E0FEF763FFFCE72A2A2A2A9D
:1019A0002A2A2A2A2A2A2A2A5B325D2E457865634A
:1019B00075746520546865204150502A2A2A2A2AC5
:1019C0002A2A2A2A2A2A2A2A2A2A2A2A2A2A2A2A77
:1019D0002A2A2A2A2A2A2A2A2A0D0A0A000000006C
:1019E0002A2A2A2A2A2A2A2A2A2A2A2A5B315D2EE8
:1019F000446F776E6C6F616420496D616765205438
:101A00006F20496E7465726E616C20466C617368FC
:101A10002A2A2A2A2A2A2A2A2A2A2A2A2A0D0A0A83
:101A2000000000000D0A0A3D3D3D3D3D3D3D3D3D70
:101A30003D3D3D3D3D3D3D3D3D3D3D3D3D3D204DE3
:101A400061696E204D656E75203D3D3D3D3D3D3DDE
:101A50003D3D3D3D3D3D3D3D3D3D3D3D3D3D3D3DB6
:101A60003D3D3D3D3D0D0A0A000000000D0A3D3D93
:101A70003D3D3D3D3D3D3D3D3D3D3D3D3D3D3D3D96
:101A80003D3D3D3D3D3D3D3D3D3D3D3D3D3D3D3D86
:101A90003D3D3D3D3D3D3D3D3D3D3D3D3D3D3D3D76
:101AA0003D3D3D3D3D3D3D3D3D3D3D3D0D0A0A0039
:101AB000D01A0008000000206C000000C0140008CC
:101AC0003C1B00086C00002004150000D014000826
:101AD00008000000000C0140002000000800000089
:101AE000000C014000100000000000000000000099
:101AF0000000000000380140004000000400000029
:101B00000008014000020000000400002500000061
:101B10000000000001020304010203040607080993
:101B20000204060800A24A040000000000000000B1
:0C1B300001020304060708090000000081
:0400000508000131BD
:00000001FF
